:100000000C9447050C946F050C946F050C94F7172E
:100010000C94F7170C94F7170C946F050C946F055C
:100020000C946F050C946F050C946F050C946F0580
:100030000C946F050C946F050C946F050C946F0570
:100040000C948E160C946F050C946F050C946F0530
:100050000C946F050C946F050C946F050C946F0550
:100060000C94D8160C946F0500000000003E5B4F06
:100070005B3E3E6B4F6B3E1C3E7C3E1C183C7E3C08
:10008000181C577D571C1C5E7F5E1C00183C180016
:10009000FFE7C3E7FF0018241800FFE7DBE7FF30A6
:1000A000483A060E2629792926407F050507407F14
:1000B00005253F5A3CE73C5A7F3E1C1C08081C1C87
:1000C0003E7F14227F22145F5F005F5F06097F017D
:1000D0007F006689956A606060606094A2FFA29468
:1000E00008047E040810207E201008082A1C080836
:1000F0001C2A08081E101010100C1E0C1E0C303884
:100100003E3830060E3E0E06000000000000005F84
:1001100000000007000700147F147F14242A7F2AA0
:100120001223130864623649562050000807030062
:10013000001C2241000041221C002A1C7F1C2A08AE
:10014000083E080800807030000808080808000011
:1001500060600020100804023E5149453E00427F85
:10016000400072494949462141494D331814127FD4
:100170001027454545393C4A494931412111090774
:100180003649494936464949291E000014000000F5
:1001900040340000000814224114141414140041C7
:1001A00022140802015909063E415D594E7C121184
:1001B000127C7F494949363E414141227F414141BC
:1001C0003E7F494949417F090909013E4141517337
:1001D0007F0808087F00417F41002040413F017FA8
:1001E000081422417F404040407F021C027F7F0470
:1001F00008107F3E4141413E7F090909063E4151B9
:10020000215E7F09192946264949493203017F01A8
:10021000033F4040403F1F2040201F3F4038403FA9
:10022000631408146303047804036159494D4300BF
:100230007F4141410204081020004141417F0402F6
:10024000010204404040404000030708002054548D
:1002500078407F284444383844444428384444286B
:100260007F385454541800087E090218A4A49C78BE
:100270007F0804047800447D40002040403D007F1A
:100280001028440000417F40007C047804787C08FA
:100290000404783844444438FC18242418182424CE
:1002A00018FC7C08040408485454542404043F44B3
:1002B000243C4040207C1C2040201C3C4030403CE2
:1002C00044281028444C9090907C4464544C440042
:1002D00008364100000077000000413608000201A6
:1002E0000204023C2623263C1EA1A161123A404092
:1002F000207A38545455592155557941225454780F
:1003000042215554784020545579400C1E527212A7
:100310003955555559395454545939555454580030
:1003200000457C410002457D420001457C407D1234
:1003300011127DF0282528F07C5455450020545496
:100340007C547C0A097F4932494949323A44444441
:100350003A324A4848303A4141217A3A424020787C
:10036000009DA0A07D3D4242423D3D4040403D3C7D
:1003700024FF2424487E4943662B2FFC2F2BFF09A2
:1003800029F620C0887E0903205454794100004496
:100390007D413048484A32384040227A007A0A0A81
:1003A000727D0D19317D2629292F282629292926F4
:1003B00030484D4020380808080808080808382F39
:1003C00010C8ACBA2F102834FA00007B00000814C3
:1003D0002A142222142A14085500550055AA55AA99
:1003E00055AAFF55FF55FF000000FF00101010FF39
:1003F00000141414FF001010FF00FF1010F010F094
:10040000141414FC001414F700FF0000FF00FF1484
:1004100014F404FC141417101F10101F101F1414D0
:10042000141F00101010F0000000001F101010101A
:100430001F10101010F010000000FF10101010100E
:1004400010101010FF10000000FF140000FF00FF4C
:1004500000001F10170000FC04F4141417101714E8
:1004600014F404F40000FF00F7141414141414140A
:10047000F700F7141414171410101F101F1414147D
:10048000F4141010F010F000001F101F0000001FE7
:1004900014000000FC140000F010F01010FF10FF1A
:1004A000141414FF141010101F00000000F010FFAF
:1004B000FFFFFFFFF0F0F0F0F0FFFFFF0000000093
:1004C00000FFFF0F0F0F0F0F3844443844FC4A4A17
:1004D0004A347E02020606027E027E0263554941CC
:1004E000633844443C04407E201E2006027E020203
:1004F00099A5E7A5991C2A492A1C4C7201724C3017
:100500004A4D4D303048784830BC625A463D3E49ED
:100510004949007E0101017E2A2A2A2A2A44445F91
:10052000444440514A444040444A51400000FF0185
:1005300003E080FF000008086B6B08361236243693
:10054000060F090F060000181800000010100030F8
:1005500040FF0101001F01011E00191D1712003C80
:100560003C3C3C0000000000000103070F1F3F7FE0
:100570000080C0E0F0F8FCFE00000008000201006E
:10058000000304070000000000000000000000005D
:10059000240027002A00DB40A4A62EAF2000A1C81B
:1005A000D300408DAED580A80000600000000000A0
:1005B000000000000000000000E00000000000005B
:1005C0000000000000000001E0000000000000004A
:1005D00000000000000001F000000000000000002A
:1005E000000000000003F000000000000000000018
:1005F0000000000007F00000000000000000000004
:1006000000000007F80000000000000000000000EB
:1006100000000FF800000003C0007E000001E000B1
:100620007F0FF800000003C000FE000001E000FFA3
:10063000EFF800000003C000FE000001E000FFFF33
:10064000F800000003C000F00000000F007FFE7FF4
:10065000C0000003C000F00000000F003FFE7FF864
:100660003FF1FBCFFCFEF3BC3DEFE01FFE7FFF7FC1
:10067000FBFFDFFEFEFFBC3DEFE01FC6FFFF7FFB81
:10068000FFDFFEFEFFBC3DEFE00FE3C7FE787BC35C
:10069000DE1EF0FFBC3DEF0007FF87FC787BC3DE6A
:1006A0001EF0F83C3DEF0001FFFFF0007BC3C01ED1
:1006B000F0F03C3DEF0001F37FE03FFBC3CFFEF0E5
:1006C000F03C3DEF0003E33F807FFBC3DFFEF0F033
:1006D0003C3DEF0007E73C00787BC3DE1EF0F03CBA
:1006E0003DEF0007FFBE00787BC3DE1EF0F03C3D0F
:1006F000EF0007FFFE00787BC3DE1EF0F03C3DEF0D
:10070000000FFFFE007FFBFFDFFEF0F03FFDEFE09C
:100710000FFFFF007FFBFFDFFEF0F03FFDEFE00F7C
:10072000F9FF003E79F9CF9EF0F01F3DE7E01FF1A1
:10073000FF0000000000000000000000001F80FF1C
:10074000007FFFFFFFFFFFFFFFFFFFE01C007F00B8
:100750007FFFFFFFFEB46D888D18E000001F007F53
:10076000FFFFFFFE95AD7DB577E000000F007FFF36
:10077000FFFFFEA5AD9D8D19E0000006007FFFFF85
:10078000FFFEB5ADEDB57EE0000000000001800089
:1007900000000000000000000380000000000000D6
:1007A00000000007C000000000000000000007C0BB
:1007B0000000000000000000000FC000000000006A
:1007C000000000001FE00000000000000000001F0B
:1007D000E00000000000000000003FE0000000001A
:1007E00000000000003FF0000000000000000000DA
:1007F0007FF0000000000000001FF87FF000000004
:10080000000000003FFE7FF0000000000000003FFD
:10081000FF7FF0000000000000001FFFFBE0000071
:1008200000000000000FFFF9FFC000000000000002
:100830000FFFF9FFF800000000000007FFF1FFFFC5
:1008400000000000000003FC73FFFF8000000000B8
:100850000001FE3FFFFF80000000000000FF1E0FB0
:10086000FF000000000000007FFE1FFC00000000F1
:100870000000003FFFFFF8000000000000000FDF55
:10088000FFE0000000000000001F19FFC000000092
:10089000000000003F3CFF00000000000000007E60
:1008A0007CF800000000000000007FFE7C000000DB
:1008B0000000000000FFFFFC00000000000000003E
:1008C000FFFFFE0000000000000000FFFFFE000030
:1008D000000000000001FFEFFE000000000000002B
:1008E00001FFCFFE0000000000000003FF07FE0034
:1008F00000000000000003FC07FE000000000000F4
:100900000003F003FE00000000000000018000FE74
:10091000000000000000000000007E000000000059
:1009200000000000003E0000000000000000000089
:100930000C000000000000078000FC000003C00065
:100940000000078001FC000003C0000000078001D8
:10095000FC000003C0000000078001E00000001E52
:10096000000000078001E00000001E007FE3F79F09
:10097000F9FDE7787BDFC0FFF7FFBFFDFDFF787B68
:10098000DFC0FFF7FFBFFDFDFF787BDFC0F0F7871B
:10099000BC3DE1FF787BDE00F0F787BC3DE1F078FD
:1009A0007BDE0000F787803DE1E0787BDE007FF7AB
:1009B000879FFDE1E0787BDE00FFF787BFFDE1E088
:1009C000787BDE00F0F787BC3DE1E0787BDE00F06D
:1009D000F787BC3DE1E0787BDE00F0F787BC3DE1C6
:1009E000E0787BDE00FFF7FFBFFDE1E07FFBDFC0CB
:1009F000FFF7FFBFFDE1E07FFBDFC07CF3F39F3D2E
:100A0000E1E03E7BCFC000000000000000000000DD
:100A100000FFFFFFFFFFFFFFFFFFFFC0FFFFFFFF24
:100A2000FD68DB111A31C0FFFFFFFFFD2B5AFB6A87
:100A3000EFC0FFFFFFFFFD4B5B3B1A33C0FFFFFF23
:100A4000FFFD6B5BDB6AFDC02200FF2100000000A0
:100A50000023002600290000000000250028002BAC
:100A60000004040404040404040202020202020357
:100A70000303030303010204081020408001020461
:100A8000081020010204081020006F183D221124D4
:100A90001FBECFEFD8E0DEBFCDBF12E0A0E0B1E0D7
:100AA000E0E0F0E502C005900D92AC31B107D9F756
:100AB00023E0ACE1B2E001C01D92AB3CB207E1F72C
:100AC00015E0C6E4D5E004C02197FE010E94B325DD
:100AD000C534D107C9F70E947D190C94F3270C94F3
:100AE00000000895089508950895AF92BF92CF929F
:100AF000DF92EF92FF920F931F93CF93DF936C01DE
:100B00007B018B01040F151FEB015E01AE18BF08BE
:100B1000C017D10759F06991D601ED91FC91019070
:100B2000F081E02DC6010995892B79F7C501DF9188
:100B3000CF911F910F91FF90EF90DF90CF90BF90DA
:100B4000AF900895833081F028F4813099F082309D
:100B5000A9F008958730A9F08830C9F08430B1F445
:100B6000809180008F7D03C0809180008F7780937B
:100B70008000089584B58F7784BD089584B58F7DF6
:100B8000FBCF8091B0008F778093B0000895809163
:100B9000B0008F7DF9CFCF93DF93282F30E0F9019C
:100BA000E858FA4F8491F901EB58F54FD491F901C7
:100BB000EF59F54FC491CC23A1F081110E94A205F9
:100BC000EC2FF0E0EE0FFF1FE35BF54FA591B49122
:100BD000EC91ED2381E090E009F480E0DF91CF918A
:100BE000089580E090E0FACF1F93CF93DF93282FF2
:100BF00030E0F901E858FA4F8491F901EB58F54FCC
:100C0000D491F901EF59F54FC491CC23A9F0162FD7
:100C100081110E94A205EC2FF0E0EE0FFF1FE95AB0
:100C2000F54FA591B4918FB7F894EC91111108C0CC
:100C3000D095DE23DC938FBFDF91CF911F91089574
:100C4000DE2BF8CFCF93DF9390E0FC01EB58F54F0C
:100C500024918F59954FFC0184918823C9F090E02D
:100C6000880F991FFC01E457FA4FA591B491FC013C
:100C7000E95AF54FC591D49161110DC09FB7F89411
:100C80008C91209582238C938881282328839FBF71
:100C9000DF91CF910895623051F49FB7F8943C9161
:100CA000822F809583238C93E8812E2BEFCF8FB7F3
:100CB000F894EC912E2B2C938FBFEACF3FB7F8948A
:100CC0008091080390910903A0910A03B0910B034E
:100CD00026B5A89B05C02F3F19F00196A11DB11D97
:100CE0003FBFBA2FA92F982F8827BC01CD01620FD3
:100CF000711D811D911D42E0660F771F881F991F8E
:100D00004A95D1F708958F929F92AF92BF92CF925A
:100D1000DF92EF92FF924B015C010E945E066B0135
:100D20007C010E945E066C197D098E099F09683E50
:100D3000734081059105A8F321E0821A9108A1086A
:100D4000B10888EEC80E83E0D81EE11CF11C8114A6
:100D50009104A104B10429F7FF90EF90DF90CF90A8
:100D6000BF90AF909F908F9008952FB7F8946091A7
:100D700004037091050380910603909107032FBF30
:100D80000895EF92FF920F931F93CF93DF93EC019F
:100D9000EC80FD806E157F050CF070C057FF04C01D
:100DA000240F351F50E040E08E819F81FA01E20F51
:100DB000F31F8E179F071CF49C01241B350B121682
:100DC00013060CF05BC0922F842F8695869586952E
:100DD0008E9DD0018F9DB00D11246A0F7B1FAF8DAA
:100DE000B8A1A60FB71F477049F188E0841B482FB0
:100DF000682F70E0FB01E059FA4FE491281708F0E2
:100E000063C0621B71092FEF30E002C03595279552
:100E10006A95E2F7E2230130110539F0B0F10230B2
:100E2000110561F58C91E82702C08C91E82BEC93B9
:100E3000941720F12C813D81A20FB31FE92FE41BF1
:100E4000E83078F00230110521F58E2F9C919095B5
:100E50009C932C813D81A20FB31F88508830B0F73E
:100E6000E770EE2359F0F0E0E859FA4FE4910130D1
:100E70001105F9F010F10230110519F1DF91CF9150
:100E80001F910F91FF90EF900895E0958C91E823CA
:100E9000CECF81E00115110509F480E081959E2FE8
:100EA0008C932C813D81A20FB31F98509830C0F7CE
:100EB000D7CF8C91E82BEC93E1CFE0958C91E82390
:100EC000FACF8C91E827F7CF0130110509F4ADCFA7
:100ED000E0F20230110509F4A5CFAE0DBF1DAECF73
:100EE0000F931F93CF93DF9377FF04C0260F371F15
:100EF00070E060E0DC011496CD91DC91FB01E20F23
:100F0000F31FCE17DF071CF49E01261B370B1216AA
:100F100013064CF5FA0157FD3796A3E0F595E795D2
:100F2000AA95E1F7EC9FD001ED9FB00DFC9FB00DAD
:100F300011246A0F7B1FDC015F96ED91FC91E60F97
:100F4000F71F4770552781E090E001C0880F4A9550
:100F5000EAF7482F0130110559F0A8F02E0F3F1F76
:100F600002301105E1F0DF91CF911F910F910895AB
:100F70002E0F3F1FE217F307B1F38191DF011197A5
:100F8000842B8C93F7CF80952E0F3F1FE217F3072A
:100F900051F39191DF01119798239C93F7CFE217BA
:100FA000F30709F38191DF01119784278C93F7CF21
:100FB0000F931F93FA01DC0156964C9156974230DD
:100FC000E9F04330A1F1413061F514964D915C9107
:100FD000DA01AE1BBF0BFD01E21BF30B77FD0BC06B
:100FE000DC0116964D915C916417750724F4AB01F2
:100FF000BF010E9470071F910F91089514964D91A3
:101000005C91DA01A61BB70BBD0161507109DC01CF
:1010100016964D915C91DA01AE1BBF0BFD01E21BF0
:10102000F30B77FDE8CFAF010E94C106E4CF16961F
:101030004D915C91DA01A61BB70BBD01615071099E
:10104000CDCF0F931F93FA01DC0156964C91569722
:101050004230A9F0433091F1413019F514964D9189
:101060005C91DA01AE1BBF0BFD013197F7FD04C0A7
:10107000AB01BF010E94C1061F910F910895149604
:101080004D915C91DA01A61BB70BBD01DC011696F0
:101090004D915C91DA01AE1BBF0BFD013197621BD4
:1010A000730BF7FDE9CFDC0116964D915C91E417C7
:1010B000F50714F7AF010E947007DECF16964D9129
:1010C0005C91DA01A61BB70BBD01621B730BCECF7F
:1010D000FC0177FD64C080859185681779070CF065
:1010E0005EC057FD5CC082859385481759070CF098
:1010F00056C086898230B1F0833029F1813041F4C5
:1011000084819581841B950BAB01BC0161507109F1
:101110002130310509F108F443C02230310509F4CA
:1011200063C0089584819581DC01A61BB70BBD01C6
:101130006150710986819781DC01A41BB50BAD015B
:1011400041505109E5CF86819781861B970BBA01E3
:10115000AC0141505109DCCFCA0157FD0796A3E00D
:1011600095958795AA95E1F7A481B5818A9F90010D
:101170008B9F300D9A9F300D1124620F731F078CC7
:10118000F0A1E02DE60FF71F4770552721E030E072
:1011900001C0220F4A95EAF78081822B808308954F
:1011A000CA0157FD079633E0959587953A95E1F783
:1011B000A481B5818A9F90018B9F300D9A9F300D3D
:1011C0001124620F731F078CF0A1E02DE60FF71FAB
:1011D0004770552781E090E001C0880F4A95EAF7F3
:1011E000809590818923DACFCA0157FD079623E0C5
:1011F000959587952A95E1F7A481B5818A9F9001FD
:101200008B9F300D9A9F300D1124620F731F078C36
:10121000F0A1E02DE60FF71F4770552721E030E0E1
:1012200001C0220F4A95EAF780818227B7CF08953F
:101230008EBD00000DB407FEFDCF8EB508958CBDA8
:101240009DBD08950895FC016370668B848195812E
:1012500026813781613039F0633029F091878087AA
:10126000338722870895318720879387828708955F
:101270002F923F924F925F926F927F928F929F92A6
:10128000AF92BF92CF92DF92EF92FF920F931F9394
:10129000CF93DF93CDB7DEB76A970FB6F894DEBF72
:1012A0000FBECDBF9A8F898F7A8369834A01D22E70
:1012B00018870F833701BC2CDC0159962D913C9186
:1012C0005A972115310509F015C118968D919C91F9
:1012D0001997681779070CF0D7C11A968D919C91D0
:1012E000481759070CF0D0C14C2C512CB6E0CB9EBE
:1012F000600D711D11247C876B87161617060CF084
:10130000C3C1EA2DF0E0FA87E98793E0EE0FFF1FF3
:101310009A95E1F7F88BEF87CF01840F951F181688
:1013200019060CF0B1C1A98DBA8D58968C91811116
:1013300004C0BFEABD1508F4D394A98DBA8DED9110
:10134000FC9111970284F385E02DCD010995B5E05C
:10135000DB9EC0011124E981FA81FC83EB83312CEF
:10136000212C9C0128593F4F388F2F8B4A2D50E05C
:101370005E8B4D8BEF89F88DE20DF31D44919E82BB
:101380008D82D12CC12C69817A81620D731D7A8B7B
:10139000698B842F90E09C8B8B8BE98DFA8DA081DB
:1013A000B18140FF82C0F1E0BF126FC0AF126DC0CB
:1013B0001C96ED91FC912F813885A4014C0D5D1D8B
:1013C00069897A89898D9A8D0995EB89FC89F595CA
:1013D000E7954E2F5FEFC51AD50A6D817E818D8905
:1013E0009E89680F791F7E836D8398E0C916D104AA
:1013F00081F6AFEF2A1A3A0AEB81FC81E40DF51D64
:10140000FC83EB83F5E02F16310409F0B3CF2F8175
:10141000388526153705B9F0A98DBA8DED91FC9167
:10142000B1E0BB1257C0AB1255C069817A816B5FC6
:101430007F4F0088F189E02D830128E030E0A4018E
:10144000898D9A8D0995A98DBA8DED91FC91119791
:101450000688F789E02DCD016A960FB6F894DEBFB5
:101460000FBECDBFDF91CF911F910F91FF90EF90F5
:10147000DF90CF90BF90AF909F908F907F906F90B4
:101480005F904F903F902F9009941E96ED91FC91A4
:10149000EF80F88409851A8592014D815E816B8108
:1014A0007C81898D9A8D099590CF2F81388526155D
:1014B000370509F48ACF31E0B31207C0A31205C083
:1014C0001C96ED91FC91930178CF1E96ED91FC91C5
:1014D0007301E0CF6B857C85641975090684F785F7
:1014E000E02D73010F8518899201A401898D9A8DD1
:1014F0000995A9CFF9013496949132974591549169
:10150000D91AB7E0DB9E400D511D1124F901259138
:1015100034913C8B2B8BFA0125903490FA01329652
:10152000749031963491398B329664903196449010
:1015300041E04C1518F04A1508F07FC0662D062CC6
:10154000000C770B7C836B83842D042C000C990B8F
:101550009E838D83A98DBA8DED91FC9111970284A4
:10156000F385E02DCD010995512CD12CC12CEA2D0C
:10157000F0E0FA87E9872B2D30E03C872B87A40128
:10158000440D511D47FC5A95588F4F8B69817A81C4
:10159000660D711D67FC7A957E876D877989C71600
:1015A00008F051CF2C2D30E04D815E81420F531F4A
:1015B000A985BA854A9FC0014B9F900D5A9F900DF7
:1015C0001124FC01E80DF91DF88BEF87852D612CA6
:1015D0004F89588D420F531F5E8B4D8B671408F057
:1015E00050C044244394480E877041F4C1010196D1
:1015F000EB89FC89E20DF31DD4901C01D7FE19C0C4
:10160000A98DBA8DED91FC91662D70E0B1E0BB1211
:1016100019C0AB1217C02D853E85620F731F04845D
:10162000F585E02D2F8138854D895E89898D9A8DCC
:101630000995DD0C6394842DD1CF1E821D821C82FE
:101640001B8288CF4B815C81640F751FAB85BC8585
:101650006A9FC0016B9F900D7A9F900D1124698144
:101660007A81680F791F0684F785E02DEF80F88472
:1016700009851A859D014F855889898D9A8D09950F
:10168000D8CF570CC3948ACF6A960FB6F894DEBFB2
:101690000FBECDBFDF91CF911F910F91FF90EF90C3
:1016A000DF90CF90BF90AF909F908F907F906F9082
:1016B0005F904F903F902F9008958F929F92AF929E
:1016C000CF92EF92FF920F931F93CF93DF93EC0192
:1016D000262F898D9A8D009709F051C06A30D1F478
:1016E0001D861C868D8948E0849F900111248E857B
:1016F0009F85820F931F9F878E8781E090E0DF9107
:10170000CF911F910F91FF90EF90CF90AF909F904E
:101710008F9008956D3089F3CC88AD888F898823A8
:10172000C1F08C859D8536E0C39E800D911D1124EE
:10173000488559854817590764F44E855F851D868D
:101740001C8638E0A39EC0011124840F951F9F873B
:101750008E87EA88FB88088919894E855F856C85A4
:101760007D85CE010E9438092C898C859D8546E0B7
:10177000249F800D911D11249D878C87BECF6A30D8
:1017800069F41D861C86FC013896E4912D898E85AE
:101790009F85E29F800D911D1124ADCF6D3009F41E
:1017A000ACCFFC0134963491631708F4A6CF32967F
:1017B000E491E61708F4A1CFFC013296859094904D
:1017C000462F431B342F47E0349F800C911C11247B
:1017D000F401329634913196E4913323A9F1EE234A
:1017E00099F1CC88F4013596E491AD884F89442372
:1017F00001F10E2E000CFF0BE30FF11DCE9EA00198
:10180000CF9E500D11246C857D85460F571F68852E
:101810007985641775076CF44E855F851D861C8677
:10182000FC013896E491AE9E400D511D11245F8756
:101830004E87EA88FB88088919894E855F856C8503
:101840007D85CE010E943809F4013496E4912C89FB
:101850008C859D85E29F800D911D11248DCF6F9207
:101860007F928F929F92AF92BF92CF92DF92EF9230
:10187000FF920F931F93CF93DF93EC016B015A01FB
:1018800039014801E881F9810284F385E02D099549
:10189000E881F9810288F389E02D87019301A50190
:1018A000B601CE010995A501480D591D41505109B8
:1018B000E881F9810288F389E02D9301B601CE0118
:1018C0000995E881F9810088F189E02D9401A5014D
:1018D000B601CE010995C60CD71CB601615071093D
:1018E000E881F9810088F189E02D9401A501CE01FC
:1018F0000995E881F9810688F789E02DCE01DF910D
:10190000CF911F910F91FF90EF90DF90CF90BF90FC
:10191000AF909F908F907F906F9009946F927F927D
:101920008F929F92AF92BF92CF92DF92EF92FF92EF
:101930000F931F93CF93DF935C01EB016A01490181
:1019400038018701DC01ED91FC916217730719F5ED
:10195000641675062CF0962D872D3A01C92ED82EC7
:101960009601261937092F5F3F4F048CF58DE02D26
:10197000A301BE01C5010995DF91CF911F910F9180
:10198000FF90EF90DF90CF90BF90AF909F908F909F
:101990007F906F9008954615570591F426173707E5
:1019A00024F0892D4B01C22FD82F9E012819390907
:1019B0002F5F3F4F068CF78DE02DA601B401DACFE3
:1019C0000284F385E02D0995D501ED91FC91048801
:1019D000F589E02D83019401A601BE01C501099599
:1019E000D501ED91FC910688F789E02DC501DF91C5
:1019F000CF911F910F91FF90EF90DF90CF90BF900C
:101A0000AF909F908F907F906F900994EF92FF928C
:101A10000F931F93DC011A960D911C911B9718963A
:101A20002D913C911997ED91FC9100A0F1A1E02D31
:101A30007B0150E040E070E060E009951F910F915C
:101A4000FF90EF9008954F925F926F927F928F92E6
:101A50009F92AF92BF92CF92DF92EF92FF920F933D
:101A60001F93CF93DF936C012B015A013901480179
:101A7000DC01ED91FC910284F385E02D0995E201F2
:101A8000640C751CD601ED91FC91C615D7055CF46C
:101A90000088F189E02D87019401A501BE01C601EE
:101AA00009952196EFCF0688F789E02DC601DF91D1
:101AB000CF911F910F91FF90EF90DF90CF90BF904B
:101AC000AF909F908F907F906F905F904F90099410
:101AD0008F929F92AF92BF92CF92DF92EF92FF923E
:101AE0000F931F93CF93DF93EC015B014A016901D0
:101AF000E881F9810284F385E02D099595012C0D8B
:101B00003D1D21503109E881F9810488F589E02DD6
:101B100078018401A401B501CE010995E881F9811C
:101B20000688F789E02DCE01DF91CF911F910F91AB
:101B3000FF90EF90DF90CF90BF90AF909F908F90ED
:101B400009948F929F92AF92BF92CF92DF92EF92C1
:101B5000FF920F931F93CF93DF93EC015B014A0138
:101B600069017801E881F9810284F385E02D099506
:101B7000C80CD91C860101501109E881F98104883B
:101B8000F589E02D9501A401B501CE010995E88103
:101B9000F9810688F789E02DCE01DF91CF911F9161
:101BA0000F91FF90EF90DF90CF90BF90AF909F90FC
:101BB0008F900994EF92FF920F931F93DC01ED91A8
:101BC000FC9100A0F1A1E02D09951F910F91FF90CC
:101BD000EF9008950F931F93DC01ED91FC91068C1B
:101BE000F78DE02D09951F910F9108950F931F9385
:101BF000DC01ED91FC91048CF58DE02D09951F9190
:101C00000F910895DC01ED91FC910084F185E02DA8
:101C100009943F924F925F926F927F928F929F9220
:101C2000AF92BF92CF92DF92EF92FF920F931F93EA
:101C3000CF93DF935C017B014A016901390187E0A1
:101C4000680E711C93E0759467949A95E1F72B01E7
:101C5000400E511E10E000E0312CD0E0C0E0CE017B
:101C600087709927330C892B59F4FE0183E0F59591
:101C7000E7958A95E1F7E00FF11FE80DF91D349023
:101C800037FE0AC021E030E0A701B5016C0F7D1FCF
:101C900087E893E00E94020E2196CC16DD06F9F645
:101CA0008FEFE81AF80A060D171DE414F504A9F6DB
:101CB000DF91CF911F910F91FF90EF90DF90CF9028
:101CC000BF90AF909F908F907F906F905F904F905C
:101CD0003F9008952F923F924F925F926F927F9222
:101CE0008F929F92AF92BF92CF92DF92EF92FF922C
:101CF0000F931F93CF93DF9300D000D000D0CDB7C8
:101D0000DEB73C016A013E832D83FC82EB825801E1
:101D1000A41AB50AB7FE03C0B194A194B1088D808E
:101D20009E80861A970A97FE03C091948194910829
:101D30008A149B045CF0902F812F0D811E819D835E
:101D40008E839C2D8D2D6B01692F782F0C151D0511
:101D50005CF09D818E817E836D83692F782F902F1B
:101D6000812F8601C92ED82E1601201A310A2B0187
:101D70002D813E81421A530A57FE03C0519441946B
:101D80005108710137FE03C03FEFE31AF30AF594DF
:101D9000E7948D819E81861797075CF5A1E0B0E0FE
:101DA000BA83A983C016D1064CF1D301ED91FC9101
:101DB0000484F585E02D2B813C81A8016D817E8115
:101DC0008A149B041CF04D815E81B801C301099502
:101DD000E418F508F7FE0AC02D813E8189819A81B9
:101DE000280F391F3E832D83E20CF31C0F5F1F4F1A
:101DF000D9CF2FEF3FEF3A832983D4CF26960FB662
:101E0000F894DEBF0FBECDBFDF91CF911F910F9130
:101E1000FF90EF90DF90CF90BF90AF909F908F900A
:101E20007F906F905F904F903F902F90089585ED39
:101E30008093BC008091BC0084FDFCCF10921703FE
:101E400008952091BC02260F3327331F213231051C
:101E5000ECF420911703FC0190E080E0243069F05D
:101E600082E00895A091BC022191AC0144565D4FDF
:101E7000A40FB52FB11D2C930196861798F380916E
:101E8000BC02680F6093BC0280E0089581E0089571
:101E9000E091190380911803E81730F4F0E0E4585A
:101EA000FD4F808190E008958FEF9FEF089590910E
:101EB0001903809118032FEF3FEF981748F4E92F8B
:101EC000F0E0E458FD4F208130E09F5F90931903CC
:101ED000C90108958091180390911903891B990BEA
:101EE0000895CF92DF92EF92FF920F931F93CF93BB
:101EF000DF937C01CB018A0120914303222389F0E7
:101F0000EB016B01C40ED51ECC15DD0569F069919E
:101F1000D701ED91FC910190F081E02DC701099569
:101F2000F3CF642F0E94210FC801DF91CF911F9141
:101F30000F91FF90EF90DF90CF900895CF93DF93B4
:101F40001F92CDB7DEB76983209143032223F9F0B6
:101F500020914003203258F021E030E0FC0133832F
:101F6000228390E080E00F90DF91CF9108958091DF
:101F70004103E82FF0E0E45AFD4F998190838F5F91
:101F8000809341038093400381E090E0ECCF61E0D7
:101F9000CE0101960E94210FF7CF2091400381E0EE
:101FA000213208F044C0809117038111FCCF809149
:101FB000420392E09093170391E0909316039FEFF2
:101FC0009093DF021092010320930003ACE5B2E08E
:101FD000E0EEF2E090E0291331C0109202039091FC
:101FE0000203880F892B80930203809115038130AF
:101FF00049F510921503809102038093BB008091F4
:10200000BC0083FDF8CF85EC8093BC008091170362
:102010008230E1F38091DF028F3FB1F08091DF02E7
:102020008032A1F08091DF02803391F084E0109241
:102030004103109240031092430308953D91319360
:102040009F5FC9CF85EEE0CF80E0F1CF82E0EFCF98
:1020500083E0EDCFEF92FF920F931F93CF93DF9327
:102060007C01C62F8091A4039091A503009709F4E9
:1020700059C02091A80331E03093430320934203D9
:102080001092410310924003DC01ED91FC9101900C
:10209000F081E02D60E009958701EE24E394F12CB6
:1020A000D1E0C1508091A4039091A503CF3F91F15D
:1020B000B0E2EB16F104D8F00E94CD0F8091A4039A
:1020C0009091A5032091A803D0934303209342034A
:1020D0001092410310924003DC01ED91FC910190BC
:1020E000F081E02D60E00995EE24E394F12C8091DD
:1020F000A4039091A503F8016491DC01ED91FC919A
:102100000190F081E02D0995BFEFEB1AFB0A0F5FFC
:102110001F4FC7CFDF91CF911F910F91FF90EF908D
:102120000C94CD0FE091B403F091B50390818091B0
:10213000BA038095892380838701C15008F438C091
:10214000F80184912091A2033091A303232B29F05D
:102150000E9418090F5F1F4FF0CF28E030E040E8E1
:10216000E091B003F091B1039091B803582F54233C
:10217000D9F05081952B9083E091B203F091B30395
:1021800090815091B903952B9083E091B203F09127
:10219000B30350819091B903909595239083469510
:1021A00021503109E9F6D6CF508190959523E3CFA0
:1021B000DF91CF911F910F91FF90EF9008951F93A2
:1021C000CF93DF93EC018D8D9E8D009721F1162F1B
:1021D00029A131E03093430320934203109241033D
:1021E00010924003DC01ED91FC910190F081E02D13
:1021F00060E009958D8D9E8DDC01ED91FC91019043
:10220000F081E02D612F09958D8D9E8DDF91CF910D
:102210001F910C94CD0FADA5BEA59C918BA9809567
:1022200089238C938B8D9C8D892B31F0862FDF91A8
:10223000CF911F910C94180928E030E080E8A9A5FF
:10224000BAA599A9462F4823C1F04C91942B9C9391
:10225000ABA5BCA59C914AA9942B9C93ABA5BCA50E
:102260004C919AA9909594239C938695215031097D
:1022700031F7DF91CF911F9108954C919095942360
:10228000E6CFDF92EF92FF920F931F93CF93DF93EE
:102290008091A4039091A503892B09F498C0209103
:1022A000BC033091BD034091BE035091BF0360E079
:1022B00074E284EF90E00E943924205131094109F1
:1022C000510956954795379527952093B80065E0B5
:1022D00088E49AE00E942A1060918B03615087E89D
:1022E00093E00E94DF1020918D0330918E03C9018D
:1022F000079697FD079633E0959587953A95E1F710
:1023000020918B0330918C03829F8001839F100D5D
:10231000929F100D1124C091A603D091A703809124
:10232000A4039091A5030C0F1D1F009709F48FC003
:102330002091A80331E0309343032093420310928D
:10234000410310924003DC01ED91FC910190F0817A
:10235000E02D60E40995EE24E394F12CDD24D39480
:102360008091A4039091A5030C171D0709F446C0A2
:10237000B0E2EB16F104D8F00E94CD0F8091A403D7
:102380009091A5032091A803D09243032093420388
:102390001092410310924003DC01ED91FC910190F9
:1023A000F081E02D60E40995EE24E394F12C809116
:1023B000A4039091A5036991DC01ED91FC9101903A
:1023C000F081E02D0995BFEFEB1AFB0AC9CF809190
:1023D000A2039091A303892B31F08091C5039091C2
:1023E000C6030E941F09E091B603F091B7039081E4
:1023F0008091BB0380958923808369CF0E94CD0F94
:102400008091A4039091A503892B09F461C02091C8
:10241000C0033091C1034091C2035091C30360E0F7
:1024200074E284EF90E00E9439242051310941097F
:10243000510956954795379527952093B800DF9118
:10244000CF911F910F91FF90EF90DF900895E09151
:10245000B403F091B50380819091BA03892B8083F6
:102460000C171D0769F289912091A2033091A303F3
:10247000232B19F00E941809F3CF28E030E040E840
:10248000E091B003F091B1039091B803582F542319
:10249000D9F05081952B9083E091B203F091B30372
:1024A00090815091B903952B9083E091B203F09104
:1024B000B30350819091B9039095952390834695ED
:1024C00021503109E9F6CCCF508190959523E3CF87
:1024D000E091B603F091B70380819091BB03892B03
:1024E0008083ADCF1F93CF93DF93EC01162F8D8D9B
:1024F0009E8D892BB1F12DA93EA94FA958AD60E061
:1025000074E284EF90E00E9439242051310941099E
:10251000510956954795379527952093B80066EA57
:10252000111167EACE010E94DF108D8D9E8D892BDF
:1025300041F129AD3AAD4BAD5CAD60E074E284EFA2
:1025400090E00E94392420513109410951095695E2
:102550004795379527952093B800DF91CF911F912C
:1025600008958B8D9C8D892B21F08EAD9FAD0E949F
:102570001F09EFA5F8A990818CA9809589238083F4
:10258000CECFEFA5F8A980819CA9892B8083E5CFC8
:1025900020910E0330910F032817390771F49091A1
:1025A0000C0380910D03981741F0E0910C03F0E0CB
:1025B000E45EFD4F808190E008958FEF9FEF0895D6
:1025C000EF92FF920F931F93CF93DF93DC015C9602
:1025D000ED90FC905D97E114F10479F481E090E0D6
:1025E00013969C938E93129790E080E0DF91CF91A9
:1025F0001F910F91FF90EF9008955196ED91FC91EE
:10260000529750968C915097982F90950FB75E9651
:102610002C915E97122F127021FD6095F894208105
:10262000112319F1282B2083E7012197F1F728E0E6
:10263000462F50E0308160FF1AC0382B3083E7010D
:102640002197F1F7BA0175956795215089F7112304
:1026500081F08081892380830FBF5C968D919C914E
:102660000197F1F781E090E0C1CF2923DCCF392336
:10267000E5CF9081892BEFCF20910E0330910F038E
:102680002817390771F480910D0320910C0390E015
:10269000805C9F4F821B910960E470E00E9484255A
:1026A000089590E080E0089520910E0330910F038B
:1026B00028173907B9F490910C0380910D039817EE
:1026C00089F0E0910C03F0E0E45EFD4F8081209101
:1026D0000C0330E02F5F3F4F2F73332720930C0301
:1026E00090E008958FEF9FEF08950F931F930E943E
:1026F000B5066093640370936503809366039093BB
:1027000067038CE593E00E94541397FF1DC00E945D
:10271000B506009164031091650320916603309122
:102720006703601B710B820B930B00916003109188
:102730006103209162033091630360177107820780
:102740009307F8F28FEF9FEF1F910F91089590E09C
:1027500080E0089520918D0330918E03C901079682
:1027600097FD079623E0959587952A95E1F72091A7
:102770008B0330918C03829FA001839F500D929F09
:10278000500D112470E060E08091A6039091A703A2
:102790000C94A927CF93DF93FC0124813581621724
:1027A000730788F49B01C081D18162E270E0CE01A1
:1027B000820F931F0E94B027009729F08C1B9D0B5E
:1027C000DF91CF9108958FEF9FEFFACFFB01DC01EE
:1027D0008D919C91009761F0608171816115710507
:1027E00039F0448155810E94CB2721E0892B09F0E3
:1027F00020E0822F08950E949B27FB01019000207A
:10280000E9F73197AF01461B570BDC01ED91FC91C5
:102810000280F381E02D0994CF93DF93FC01448182
:1028200055816081718187E893E00E947505EC0114
:1028300067E771E087E893E00E94FD138C0F9D1F0E
:10284000DF91CF9108958F929F92AF92BF92CF92D6
:10285000DF92EF92FF920F931F93CF93DF93CDB749
:10286000DEB7A1970FB6F894DEBF0FBECDBF6C01E7
:10287000990FEE08FF08F7FE43C06DE287E893E08A
:102880000E945D0B8C0122273327A9012C193D09D9
:102890004E095F0919A2CE0181967C019AE0892E2A
:1028A000912CA12CB12CCA01B901A50194010E945F
:1028B0003924605DF70162937F01211531054105DF
:1028C000510589F790E080E0309729F0BF0187E853
:1028D00093E00E94FD13800F911FA1960FB6F8940C
:1028E000DEBF0FBECDBFDF91CF911F910F91FF9043
:1028F000EF90DF90CF90BF90AF909F908F90089512
:10290000A701960119A28E010F5D1F4F8AE0C82E04
:10291000D12CE12CF12CCA01B901A70196010E942A
:102920003924605DF80162938F012115310541055D
:10293000510589F790E080E0309779F2BF0187E890
:1029400093E00E94FD13C9CF0F931F93CF93DF93A2
:10295000EC010E94FD138C0167E771E0CE010E943B
:10296000FD13800F911FDF91CF911F910F9108955B
:10297000AF92BF92CF92DF92EF92FF920F931F938D
:10298000CF93DF93DC01CD90DC901197C114D1047B
:1029900039F01496CD91DC918C017601209761F489
:1029A000DF91CF911F910F91FF90EF90DF90CF902B
:1029B000BF90AF90089575015701BFEFAB1ABB0AE6
:1029C000F7018081082E000C990B0E94B322892BFD
:1029D00091F72197CC0DDD1D8881082E000C990BF5
:1029E0000E94B322892B29F0CE15DF0510F0219724
:1029F000F3CFAE014F5F5F4F4E195F09D8011596B7
:102A00005C934E931497CE14DF0420F4B701C601F3
:102A10000E94A027D801ED91FC91119714968D91F9
:102A20009C91E80FF91F1082BBCFCF93DF93FC017D
:102A3000248135814217530788F4C081D181FB017D
:102A400060817181CE01840F951F0E94D927009764
:102A500029F08C1B9D0BDF91CF9108958FEF9FEF95
:102A6000FACF0F931F93CF93DF938C01EB01FC01FF
:102A7000808191810097E1F068817981611571050C
:102A8000A9F0428153812C813D814217530770F098
:102A90000E94C4278C819D81F801958384831D82C7
:102AA0001C82DF91CF911F910F9108950E945526AE
:102AB00088819981F801918380838A819B819383A6
:102AC00082838C819D8195838483198218821B82E5
:102AD0001A82E5CFCF93DF93EC018881998100972B
:102AE00011F00E945526198218821D821C821B82B9
:102AF0001A82DF91CF910895FC01808191810C941D
:102B000055260F931F93CF93DF93EC018881998112
:102B1000009759F02A813B812617370730F081E072
:102B2000DF91CF911F910F9108958B016F5F7F4FC0
:102B30000E94DE26009759F0998388831B830A83BD
:102B40002C813D81232B59F7FC011082E8CF80E0D6
:102B5000E7CFEF92FF920F931F93CF93DF93EC0198
:102B60007B01198218821B821A821D821C82FB0142
:102B700001900020E9F731978F01061B170BB80170
:102B80000E948115811109C0CE01DF91CF911F9163
:102B90000F91FF90EF900C946A151D830C83B70181
:102BA00088819981DF91CF911F910F91FF90EF90D4
:102BB0000C94C427EF92FF920F931F93CF93DF9350
:102BC00000D0CDB7DEB78C0169E771E00E94A9158E
:102BD0000E94751397FD21C08A309105F1F0898319
:102BE0001A82F801E480F580FFEFEF1AFF0AB701BF
:102BF000C8010E948115882359F3F8012081318191
:102C000084819581BE016F5F7F4F820F931F0E9469
:102C1000C427F801F582E482DBCFC8010F900F9042
:102C2000DF91CF911F910F91FF90EF900895EF9258
:102C3000FF920F931F93CF93DF938C017B01EB01E6
:102C400009900020E9F72197C61BD70BBE010E940F
:102C50008115811109C0C801DF91CF911F910F919A
:102C6000FF90EF900C946A15F801D583C483B701E7
:102C700080819181DF91CF911F910F91FF90EF9013
:102C80000C94C427AF92BF92CF92DF92EF92FF9243
:102C90000F931F93CF93DF936C015B017A0189013E
:102CA0002417350720F48F2D7901042F182F69E799
:102CB00071E0C6010E94A915D5011496CD91DC9151
:102CC000EC16FD06E0F40C171D0708F4E801D50129
:102CD000ED91FC911197EC0FFD1F108110826D9109
:102CE0007C916E0D7F1DC60161157105A1F00E94DA
:102CF0001716F50180819181C80FD91F1883C6016D
:102D0000DF91CF911F910F91FF90EF90DF90CF90C7
:102D1000BF90AF9008950E946A15EBCF1F920F925B
:102D20000FB60F9211242F933F938F939F93AF93DE
:102D3000BF938091040390910503A0910603B09185
:102D400007033091030323E0230F2D3758F5019635
:102D5000A11DB11D209303038093040390930503E9
:102D6000A0930603B0930703809108039091090391
:102D7000A0910A03B0910B030196A11DB11D809390
:102D8000080390930903A0930A03B0930B03BF9128
:102D9000AF919F918F913F912F910F900FBE0F9008
:102DA0001F90189526E8230F0296A11DB11DD2CFC2
:102DB0001F920F920FB60F9211242F933F934F93B0
:102DC0005F936F937F938F939F93AF93BF93EF9393
:102DD000FF938091B900887F803609F44AC0F0F5EE
:102DE000883209F4A7C018F5803109F49BC0B8F403
:102DF000882309F4F9C0883009F494C0FF91EF9159
:102E0000BF91AF919F918F917F916F915F914F9102
:102E10003F912F910F900FBE0F901F901895883102
:102E200009F488C0803251F78093DF0214C08034E7
:102E300009F49DC040F48033B9F38833F9F68093E8
:102E4000DF0285ECB0C0803509F485C0883509F40F
:102E500096C0883499F60E94170FD0CF883909F4AC
:102E60008CC038F5883729F050F4883611F0803757
:102E700029F683E0809317031092DE0257C088384A
:102E800009F47BC0803919F0803809F0B7CF809100
:102E9000DE02803208F071C0E091DE0281E08E0F28
:102EA0008093DE028091BB00F0E0E254FD4F80830E
:102EB0003DC0803B39F0E0F4803A09F479C0883AAB
:102EC00009F09CCF84E0809317031092BD0210920A
:102ED000BC02E0911303F091140309958091BC02A8
:102EE00081110FC081E08093BC0210929C0209C046
:102EF000803C09F4A6CF883C09F4A3CF883B09F0B5
:102F00007DCFE091BD0281E08E0F8093BD02F0E0A5
:102F1000E456FD4F80818093BB009091BD0280916B
:102F2000BC0229C0809102038093BB0085EC809392
:102F3000BC0064CF9091010380910003981758F56D
:102F4000E091010381E08E0F80930103F0E0E052F5
:102F5000FD4F8081E9CFE091010381E08E0F8093E6
:102F600001038091BB00F0E0E052FD4F808390911F
:102F70000103809100039817C8F285E8D8CFE0914B
:102F8000010381E08E0F809301038091BB00F0E08C
:102F9000E052FD4F80838091160381115CCF81E068
:102FA0008093150384EA8093BC001092170326CF08
:102FB00085EC8093BC00109217038091DE02803272
:102FC00030F4E091DE02F0E0E254FD4F10826091B7
:102FD000DE0270E0E0911103F09112038EEB92E0BB
:102FE00009951092DE020ACF1092DF0234CF1F92B1
:102FF0000F920FB60F9211242F933F934F935F932D
:103000006F937F938F939F93AF93BF93EF93FF93B0
:10301000E0910E03F0910F03309749F0A685B78534
:103020008585968D91FF14C09C918923A1F4FF9111
:10303000EF91BF91AF919F918F917F916F915F9130
:103040004F913F912F910F900FBE0F901F901895A9
:103050009C91892361F7A389B4899C918589809586
:1030600089238C93868997890197F1F7608D718DFB
:10307000A685B785558538E020E0CB010197F1F7AB
:10308000822F90E095958795282F4C91452309F044
:103090002068315091F7868D81FD209580910D0338
:1030A00090E001968F73992730910C03381799F0AF
:1030B000A0910D03B0E0A45EBD4F2C9380930D034F
:1030C000828D938D0197F1F7A389B4898C919589AD
:1030D000892B8C93ACCF868D8160868FF1CF0F9337
:1030E0001F9310927E0310927D0308EE13E020E000
:1030F00030E000937F03109380032093810330938B
:1031000082038BE291E090937C0380937B03109287
:103110008A031092890340E850E050938C03409357
:103120008B0380E490E090938E0380938D03509303
:10313000900340938F039093920380939103109296
:103140009D03109294031092930310929603109291
:10315000950361E060939C0360939B038FEF9FEF67
:1031600090939A0380939903909398038093970385
:1031700060939E0310929F031092A1031092A003EC
:103180008FE491E090938803809387031092A303C8
:103190001092A2038BE793E09093A5038093A4037E
:1031A0001092A7031092A6039FEF9093AB03909306
:1031B000AC039093AD039093AE039093AF0380E87C
:1031C0009AE1A6E0B0E08093BC039093BD03A09386
:1031D000BE03B093BF0380EA96E8A1E0B0E080931D
:1031E000C0039093C103A093C203B093C30380E5CF
:1031F0008093C5031092C60310925F0310925E0382
:103200000093600310936103209362033093630380
:103210008DE391E090935D0380935C0310927303C0
:103220001092720310927503109274031092770338
:1032300010927603109279031092780380917A03AA
:103240008E7F8D7F80937A038695817068278AE0D0
:103250000E94F40561E08AE00E942206EFE7FAE0AE
:10326000E491E0936C03EBE6FAE0E491F0E0EE0F1A
:10327000FF1FE95AF54F8591949190936E038093C7
:103280006D0360E08BE00E94220680917A0381FD4D
:1032900004C061E08BE00E94F4058BE0809368033A
:1032A000E0E8FAE0E491E0936903ECE6FAE0E49107
:1032B000F0E0EE0FFF1FE35BF54F85919491909343
:1032C0006B0380936A0369E771E086E593E00E94EF
:1032D000A91569E771E080E593E00E94A91569E707
:1032E00071E08AE493E00E94A91569E771E084E443
:1032F00093E01F910F910C94A915CF93DF93CDB755
:10330000DEB72E970FB6F894DEBF0FBECDBF789410
:1033100084B5826084BD84B5816084BD85B58260DA
:1033200085BD85B5816085BD80916E00816080938B
:103330006E001092810080918100826080938100F4
:103340008091810081608093810080918000816004
:10335000809380008091B10084608093B10080915F
:10336000B00081608093B00080917A008460809387
:103370007A0080917A00826080937A0080917A004E
:10338000816080937A0080917A00806880937A00CF
:103390001092C10010927703109276031092750379
:1033A0001092740310927303109272038DE991E0EE
:1033B000909379038093780390916803963108F095
:1033C00047C02DEB30E030937303209372032BE959
:1033D00031E030937503209374032CE231E0309395
:1033E0007703209376032091680084E0983048F0BA
:1033F00031E09E3008F430E081E001C0880F3A955A
:10340000EAF7822B809368002DE630E0983050F088
:103410002BE630E09E3030F02CE630E0963110F0B4
:1034200030E020E03093700320936F03292F30E0C9
:10343000983008F064C081E001C0880F9A95EAF7DF
:103440008093710380917803909179030197F1F74C
:103450008091760390917703892B49F1E0910E03D7
:10346000F0910F0323E0EC35F20709F1309739F0C2
:10347000A389B4899C918589809589238C938091B7
:103480007A038E7F80937A0310920D0310920C03BF
:103490008CE593E090930F0380930E03E0916F030C
:1034A000F0917003808190917103892B80838091CA
:1034B000A6039091A703892B79F10E94AA1320916A
:1034C0008D0330918E0380918B0390918C03213278
:1034D00031050CF0E1C1B9016052710977FF02C0FA
:1034E0006F5F7F4F759567958357910997FD01969B
:1034F00000E210E023E730E048EA55E0E0C19E300A
:1035000040F42850310981E001C0880F2A95EAF77C
:1035100097CF2E503109F7CF20918D0330918E0334
:10352000C901079697FD0796B3E095958795BA95DB
:10353000E1F720918B0330918C03AC01429FC001D5
:10354000439F900D529F900D11240E94B925909396
:10355000A7038093A603892B09F0AFCF81E090E009
:1035600090939A0380939903909398038093970381
:1035700080939B0380939C037AE1E72E73E0F72E00
:1035800003E111E0DD24D394F80180810E5F1F4F29
:1035900062E00E942206F701D1927F01F1E007323A
:1035A0001F0791F762E080E10E94220662E081E15C
:1035B0000E94220662E08FE00E9422060E94AA1367
:1035C00084E190E090939403809393039093960307
:1035D000809395036AE771E087E893E00E94A41462
:1035E0000E94411160EA7FE080E090E00E94830643
:1035F00067E871E08CE593E00E94A4146CE271E04E
:1036000080E090E00E94830661E971E08CE593E040
:103610000E94A4146CE271E080E090E00E948306B6
:103620006BE971E08CE593E00E94A4146CE271E018
:1036300080E090E00E9483066FE1462E512C612CC1
:10364000712C332433948CE593E00E943C135C018D
:10365000892B09F434C3CE0107960E94DA15CE01F6
:1036600007960E94B8148B859C85892B51F06DEAD2
:1036700071E08F8198850E94BB27892B11F43092CD
:10368000260362EB71E0CE0101960E94A9152B85FD
:103690003C858D819E8110E02817390740F0BE01DE
:1036A0006F5F7F4FCE0107960E94E613182FCE0161
:1036B00001960E947C15112349F170E060E0CE0173
:1036C00007960E94CA138C017C012FEFE21AF20ABE
:1036D000B701CE0107960E94CA1317FD17C008173D
:1036E0001907A4F49C01A701BE01695F7F4FCE01B9
:1036F00001960E944216BE016F5F7F4F80E593E006
:103700000E943115CE0101960E947C1569EB71E093
:10371000CE0101960E94A9152B853C858D819E8145
:1037200010E02817390740F0BE016F5F7F4FCE01D0
:1037300007960E94E613182FCE0101960E947C1571
:10374000112309F47AC069E771E08AE493E00E94EA
:10375000171669E771E084E493E00E94171630922F
:10376000310370E060E0CE0107960E94CA13BC01ED
:103770006F5F7F4FCE0107960E94CA13BC016F5F37
:103780007F4FCE0107960E94CA138C017C014FEF38
:10379000E41AF40AB701CE0107960E94CA13101664
:1037A0001106BCF408171907A4F49C01A701BE0177
:1037B000695F7F4FCE0101960E944216BE016F5F86
:1037C0007F4F8AE493E00E943115CE0101960E945A
:1037D0007C1568E770E080E090E00E948306CE01EF
:1037E00001960E94DA15BE016F5F7F4F84E493E07B
:1037F0000E943115CE0101960E947C1584E493E06D
:103800000E94B81480914803909149038B97A8F0C7
:103810002AE230E050E040E064E473E0CE0101963B
:103820000E944216BE016F5F7F4F84E493E00E94C6
:103830003115CE0101960E947C156FEB71E0CE012F
:1038400001960E94A91550E040E0BE016F5F7F4FD6
:10385000CE0107960E9415158C01CE0101960E949B
:103860007C1517FD14C010923E031092260310928F
:103870003F031092320310923303109234031092DC
:10388000350369E771E086E593E00E941716CE01E3
:1038900007960E947C15D7CEB9016054710977FF55
:1038A00002C06F5F7F4F759567958255910997FDAF
:1038B000019600E410E022E530E048E857E09595F5
:1038C00087950E94090E82E08093A9038091A4034A
:1038D0009091A503892B09F4FCC08CE38093A80385
:1038E0001092190310921803109241031092400392
:1038F0001092170381E0809316031092150361E084
:1039000082E10E94F40561E083E10E94F405809168
:10391000B9008E7F8093B9008091B9008D7F80932C
:10392000B90088E48093B80085E48093BC0082E706
:1039300095E0909314038093130383E795E09093AD
:103940001203809311038091AF0387FD1EC061E0D5
:103950000E94220661E08091AF030E94F40561E0BD
:1039600070E080E090E00E94830660E08091AF0309
:103970000E94F4056AE070E080E090E00E94830617
:1039800061E08091AF030E94F4058091A4039091BF
:10399000A503892B09F45CC12091BC033091BD03C0
:1039A0004091BE035091BF0360E074E284EF90E069
:1039B0000E943924205131094109510956954795F2
:1039C000379527952093B80064E084EA95E00E943B
:1039D0002A1060918D03615087E893E00E94DF1008
:1039E00064E080EA95E00E942A108091A90360E1DA
:1039F000813009F064E187E893E00E94DF1064E021
:103A00008CE995E00E942A108FE88093C40380918E
:103A10008B0390918C038038910509F032C180911D
:103A20008D0390918E038034910509F03AC1809105
:103A3000A903813009F023C18FE98093C40312E107
:103A40006AED87E893E00E94DF10612F87E893E03A
:103A50000E94DF1061E887E893E00E94DF10609128
:103A6000C40387E893E00E94DF1069ED87E893E0E4
:103A70000E94DF108091A90362E2813009F061EFBA
:103A800087E893E00E94DF1066E086E995E00E94F7
:103A90002A108091A4039091A503892B09F405C1F4
:103AA0002091C0033091C1034091C2035091C303E0
:103AB00060E074E284EF90E00E94392420513109E3
:103AC0004109510956954795379527952093B80098
:103AD00045CD61E08091AD030E94220661E08091B6
:103AE000AE030E9422068091AD03082E000C990BB4
:103AF000FC01EF59F54FE491F0E0EE0FFF1FE95A9A
:103B0000F54F259134913093B5032093B403FC0114
:103B1000EB58F54FE491E093BA038091AE03082E81
:103B2000000C990BFC01EF59F54FE491F0E0EE0F1A
:103B3000FF1FE95AF54FA591B491B093B703A09335
:103B4000B603FC01EB58F54FE491E093BB038C9175
:103B5000E82BEC938091A2039091A303892B09F4A5
:103B600034C01FB7F89480911003811127C0EBE691
:103B7000FAE08491EFE7FAE09491E82FF0E0EE0F9D
:103B8000FF1FE457FA4FA591B491EC91E92321F47A
:103B900061E08AE00E94F40561E08AE00E9422066A
:103BA0008CB580618CBD8CB580648CBD61E08DE08E
:103BB0000E94220661E08BE00E94220680911003A1
:103BC0008F5F809310031FBFBECE61E08091AB0377
:103BD0000E94220661E08091AC030E94220680913F
:103BE000AB03082E000C990BFC01EF59F54FE49143
:103BF000F0E0EE0FFF1FE95AF54F25913491309315
:103C0000B1032093B003FC01EB58F54FE491E0932E
:103C1000B8038091AC03082E000C990BFC01EF59FE
:103C2000F54FE491F0E0EE0FFF1FE95AF54FA59133
:103C3000B491B093B303A093B203FC01EB58F54FDA
:103C4000E491E093B9038C91E095E823EC937BCE6B
:103C50008091A2039091A303892B31F08091C50339
:103C60009091C6030E941F09E091B603F091B7033B
:103C700090818091BB03809589238083A5CE8FECB2
:103C8000DCCE8036910569F480918D0390918E038E
:103C9000409739F48091A903813029F480E1809321
:103CA000C40312E0CDCE8FEAFACFE091B603F091D3
:103CB000B70380819091BB03892B80834FCC2090E8
:103CC0003E0321105EC08091260381115AC080916D
:103CD0003F03811156C080913103811152C04AE1E6
:103CE000842E43E0942E53E1E52E51E0F52E10E0B2
:103CF00000E0F7018081F2E0EF0EF11C0E94CB059D
:103D000021E02D87009709F41D86F40121914F01D0
:103D1000222369F1892B59F5C0905A03D0905B0397
:103D2000FFE0CF16D10418F5F801E75FFE4F808160
:103D300089831A822FEFC21AD20AB60186E593E070
:103D40000E948115882399F02091560330915703E2
:103D500080915A0390915B03BE016F5F7F4F820F8A
:103D6000931F0E94C427D0925B03C0925A03F401B0
:103D700031974D8540830F5F1F4F0A30110509F0C1
:103D8000B8CF80E10E94CB056C01FF24F394892B0E
:103D900009F4F12C81E10E94CB058C01EE24E3941F
:103DA000892B09F4E12C8FE00E94CB059924939490
:103DB000009709F4912C209102012223A1F0892B74
:103DC00091F480913103882371F01092310369E7F7
:103DD00071E08AE493E00E94171669E771E084E4D9
:103DE00093E00E941716809101018823D9F0CD2815
:103DF000C9F480912603882309F418C16AEC71E0A4
:103E00008CE593E00E94A41430923E0310922603A6
:103E10000E94B5066093360370933703809338038E
:103E200090933903809100018823E1F0012BD1F4B4
:103E300064ED71E08CE593E00E94A41410923E03BF
:103E40001092260310923F03109232031092330314
:103E5000109234031092350369E771E086E593E030
:103E60000E941716F0920101E09200019092020167
:103E700080913F03882329F110913E03111125C041
:103E80000E94B50600913A0310913B0320913C0338
:103E900030913D03601B710B820B930B61347F41AA
:103EA0008105910570F010923F0330923E030E940D
:103EB000B50660933603709337038093380390936D
:103EC000390310913E031123E1F00E94B506C09022
:103ED0003603D0903703E0903803F09039036C1923
:103EE0007D098E099F0928EE33E040E050E00E94F2
:103EF0003924209332033093330340933403509397
:103F00003503809131038111BFC01111BDC00E94E2
:103F1000B50600912D0310912E0320912F033091AF
:103F20003003601B710B820B930B613A7F4081055C
:103F3000910508F4A9C00E94B50660932D03709303
:103F40002E0380932F039093300310922503109239
:103F5000240368ED71E08CE593E00E94A41468EC02
:103F600070E080E090E00E9483068CE593E00E9480
:103F70003C13892B09F488C0CE0107960E94DA15FC
:103F80006FED71E0CE0101960E94A91550E040E06E
:103F9000BE016F5F7F4FCE0107960E9415158C0101
:103FA000CE0101960E947C1517FD3BC065EE71E0C5
:103FB000CE0101960E94A915A801BE016F5F7F4F37
:103FC000CE0107960E9415157C01CE0101960E9434
:103FD0007C15A8014A5F5F4F9701BE01695F7F4F63
:103FE000CE0101960E94421689819A81C12CD12C62
:103FF0007601009719F00E9477226B01CE0101969D
:104000000E947C15F0E2CF16D1041CF03FE1C32ED4
:10401000D12CD7FE02C0D12CC12CD0922503C09246
:104020002403CE0107960E947C159FCF2110FACE63
:1040300080915A0390915B03892B09F4F3CE6EECC7
:1040400071E08CE593E00E94FD1340915A0350917A
:104050005B0360915603709157038CE593E00E94D7
:10406000750562ED71E08CE593E00E94A414309236
:104070003F030E94B50660933A0370933B0380931D
:104080003C0390933D03CECE0E94B50600912903D8
:1040900010912A0320912B0330912C03601B710B8C
:1040A000820B930B613D77408105910508F44DC06B
:1040B0000E94B5066093290370932A0380932B0313
:1040C00090932C0380E480937C0080917A0080643C
:1040D00080937A0080917A0086FDFCCF80917800F1
:1040E00060917900762F682F072E000C880B990BB2
:1040F0000E94C3222AE038E240EA5BE30E942223C6
:104100009B01AC010E946B246B017C0126E636E624
:1041100046E850E40E947F2587FD46C084E690E093
:10412000909328038093270380912703909128037D
:104130008536910514F084E690E097FF02C090E088
:1041400080E090932803809327030E94AA13A091F4
:104150002403B091250325E030E00E949825A301B7
:1041600092010E94E3234901D12CC12CA814B90467
:104170000CF044C086010C5F1F4F48E050E04C1922
:104180005D09B601660F771FEE24E394F12C23E05E
:1041900030E087E893E00E94230D4FEFA41AB40AA1
:1041A00052E0C50ED11CE2CF2DEC3CEC4CE450E4C7
:1041B000C701B6010E94BC2218162CF010922803E9
:1041C00010922703B1CF2DEC3CEC4CE450E4C70136
:1041D000B6010E946A2420E030E048EC52E40E94DC
:1041E00022232CEF3FEF4FE75FE30E94D7240E948A
:1041F0004925709328036093270396CFEE24E39418
:10420000F12C08E010E022E130E050E040E06CE604
:1042100070E087E893E00E942F0CA0912703B091F3
:1042200028032EE030E00E94982524E630E040E0AC
:1042300050E00E94E32304E010E042E050E06EE62C
:1042400070E087E893E00E94230D80E590E0909372
:104250009403809393031092960310929503809198
:104260002703909128030E94231467EE71E087E8EA
:1042700093E00E94FD1304E110E010939403009377
:10428000930380E190E090939603809395036AE70F
:1042900071E087E893E00E94A414809131038823A1
:1042A00069F1109294031092930380E290E090934E
:1042B00096038093950369EE71E087E893E00E948E
:1042C000A41410929403109293038AE290E09093C6
:1042D0009603809395038AE493E00E940C14109255
:1042E00094031092930384E390E090939603809359
:1042F000950384E493E00E940C14A4C080912603EB
:104300008823F9F08AE090E09093940380939303DC
:1043100084E290E0909396038093950361EF71E0BF
:1043200087E893E00E94A4141092940310929303E0
:1043300080E390E0909396038093950380E593E06B
:10434000DACF80913F038823E9F010939403009320
:10435000930380E290E090939603809395036FEF30
:1043600071E087E893E00E94A414109294031092E5
:10437000930380E390E0909396038093950386E502
:1043800093E0B9CF80913E03882309F465C00AE029
:1043900010E010939403009393038CE190E09093CA
:1043A00096038093950367E072E087E893E00E94AC
:1043B000A414109394030093930308E210E0109365
:1043C00096030093950386E593E00E940C14609198
:1043D00032037091330380913403909135032CE3C1
:1043E00030E040E050E00E94392469014B017E87B3
:1043F0006D87109394030093930386E390E090936A
:104400009603809395032A30310534F46BEA71E00A
:1044100087E893E00E94FD13C6010E94231467EB16
:1044200071E087E893E00E94FD13ED85FE853A97E1
:1044300034F46BEA71E087E893E00E94FD13C40155
:104440000E9423140E94411180E090E0892B09F41E
:10445000FAC80E940000F5C81092940310929303CA
:1044600084E290E0909396038093950366E172E076
:1044700087E893E00E94FD1382CF84E493E00E94DA
:104480007C158AE493E00E947C1580E593E00E940D
:104490007C1586E593E00E947C158DE391E0909376
:1044A0005D0380935C0380910E0390910F038C5504
:1044B000934071F4E0916F03F091700390818091CB
:1044C000710380958923808310920F0310920E034D
:1044D0008FE491E090938803809387038091A603F3
:1044E0009091A703009711F00C94552608951F93FF
:1044F000FC0199278827BC01E89411911032E9F357
:10450000193010F01E30C8F31B3251F01D3249F43F
:10451000689406C00E949E22610F711D811D911D2D
:10452000119110531A30B0F33EF490958095709528
:1045300061957F4F8F4F9F4F1F910895592F482F9F
:10454000372F262F660F771F881F991F660F771F3B
:10455000881F991F620F731F841F951F660F771F97
:10456000881F991F089591110C948F23803219F0A0
:1045700089508550C8F708950E94FE2208F481E012
:104580000895E89409C097FB3EF490958095709546
:1045900061957F4F8F4F9F4F9923A9F0F92F96E98F
:1045A000BB279395F695879577956795B795F11104
:1045B000F8CFFAF4BB0F11F460FF1BC06F5F7F4FA1
:1045C0008F4F9F4F16C0882311F096E911C07723B3
:1045D00021F09EE8872F762F05C0662371F096E8BC
:1045E000862F70E060E02AF09A95660F771F881F8B
:1045F000DAF7880F9695879597F90895990F00082F
:10460000550FAA0BE0E8FEEF16161706E807F907A4
:10461000C0F012161306E407F50798F0621B730B3F
:10462000840B950B39F40A2661F0232B242B252BC0
:1046300021F408950A2609F4A140A6958FEF811D63
:10464000811D08950E9435230C94A9230E949B2369
:1046500038F00E94A22320F0952311F00C949223AD
:104660000C94982311240C94DD230E94BA2370F338
:10467000959FC1F3950F50E0551F629FF001729F07
:10468000BB27F00DB11D639FAA27F00DB11DAA1F16
:10469000649F6627B00DA11D661F829F2227B00D63
:1046A000A11D621F739FB00DA11D621F839FA00DEE
:1046B000611D221F749F3327A00D611D231F849F3E
:1046C000600D211D822F762F6A2F11249F57504095
:1046D0009AF0F1F088234AF0EE0FFF1FBB1F661F10
:1046E000771F881F91505040A9F79E3F510580F0D9
:1046F0000C9492230C94DD235F3FE4F3983ED4F3B3
:10470000869577956795B795F795E7959F5FC1F77C
:10471000FE2B880F911D9695879597F908959927F7
:104720008827089597F99F6780E870E060E0089512
:104730009FEF80EC089500240A94161617061806B9
:104740000906089500240A94121613061406050695
:104750000895092E0394000C11F4882352F0BB0F26
:1047600040F4BF2B11F460FF04C06F5F7F4F8F4F89
:104770009F4F089557FD9058440F551F59F05F3FC4
:1047800071F04795880F97FB991F61F09F3F79F073
:1047900087950895121613061406551FF2CF4695F5
:1047A000F1DF08C0161617061806991FF1CF869577
:1047B0007105610508940895E894BB27662777275B
:1047C000CB0197F90895052E97FB1EF400940E94E3
:1047D000FA2357FD07D00E94392407FC03D04EF47A
:1047E0000C94FA2350954095309521953F4F4F4FAB
:1047F0005F4F089590958095709561957F4F8F4F8D
:104800009F4F08952F923F924F925F926F927F92A7
:104810008F929F92AF92BF92CF92DF92EF92FF92D0
:104820000F931F93CF93DF93CDB7DEB7CA1BDB0B7C
:104830000FB6F894DEBF0FBECDBF09942A88398821
:1048400048885F846E847D848C849B84AA84B98428
:10485000C884DF80EE80FD800C811B81AA81B98134
:10486000CE0FD11D0FB6F894DEBF0FBECDBFED0148
:104870000895A1E21A2EAA1BBB1BFD010DC0AA1FA1
:10488000BB1FEE1FFF1FA217B307E407F50720F0B9
:10489000A21BB30BE40BF50B661F771F881F991F34
:1048A0001A9469F760957095809590959B01AC017D
:1048B000BD01CF010895A29FB001B39FC001A39F86
:1048C000700D811D1124911DB29F700D811D112449
:1048D000911D08955058BB27AA270E9482240C944A
:1048E000A9230E949B2338F00E94A22320F039F4D0
:1048F0009F3F19F426F40C9498230EF4E095E7FBFF
:104900000C949223E92F0E94BA2358F3BA17620736
:1049100073078407950720F079F4A6F50C94DC233F
:104920000EF4E0950B2EBA2FA02D0B01B9019001CA
:104930000C01CA01A0011124FF27591B99F0593F0E
:1049400050F4503E68F11A16F040A22F232F342F56
:104950004427585FF3CF469537952795A795F040A4
:104960005395C9F77EF41F16BA0B620B730B840BB9
:10497000BAF09150A1F0FF0FBB1F661F771F881F71
:10498000C2F70EC0BA0F621F731F841F48F48795C9
:1049900077956795B795F7959E3F08F0B0CF9395BB
:1049A000880F08F09927EE0F9795879508950E9434
:1049B000EB240C94A9230E94A22358F00E949B236D
:1049C00040F029F45F3F29F00C94922351110C948C
:1049D000DD230C9498230E94BA2368F39923B1F342
:1049E000552391F3951B550BBB27AA276217730715
:1049F000840738F09F5F5F4F220F331F441FAA1FA9
:104A0000A9F335D00E2E3AF0E0E832D09150504064
:104A1000E695001CCAF72BD0FE2F29D0660F771F12
:104A2000881FBB1F261737074807AB07B0E809F0F8
:104A3000BB0B802DBF01FF2793585F4F3AF09E3F7D
:104A4000510578F00C9492230C94DD235F3FE4F33E
:104A5000983ED4F3869577956795B795F7959F5FC0
:104A6000C9F7880F911D9695879597F90895E1E00C
:104A7000660F771F881FBB1F621773078407BA076B
:104A800020F0621B730B840BBA0BEE1F88F7E095C6
:104A900008950E9450256894B1110C94DD23089567
:104AA0000E94C22388F09F5798F0B92F9927B751D9
:104AB000B0F0E1F0660F771F881F991F1AF0BA95C2
:104AC000C9F714C0B13091F00E94DC23B1E0089521
:104AD0000C94DC23672F782F8827B85F39F0B93F13
:104AE000CCF3869577956795B395D9F73EF4909575
:104AF0008095709561957F4F8F4F9F4F08950E94CD
:104B0000FE2208F48FEF089597FB072E16F4009409
:104B100007D077FD09D00E949F2507FC05D03EF401
:104B2000909581959F4F0895709561957F4F089559
:104B30000E945B24B7FF0895821B930B0895AA1B64
:104B4000BB1B51E107C0AA1FBB1FA617B70710F078
:104B5000A61BB70B881F991F5A95A9F780959095AA
:104B6000BC01CD010895EE0FFF1F0590F491E02DDB
:104B700009940F931F93CF93DF938230910510F424
:104B800082E090E0E091C903F091CA0330E020E0B8
:104B9000B0E0A0E0309799F42115310509F44AC03E
:104BA000281B390B24303105D8F58A819B8161158A
:104BB000710589F1FB0193838283FE0111C040815D
:104BC00051810281138148175907E0F048175907AE
:104BD00099F4109761F012960C93129713961C9308
:104BE0003296CF01DF91CF911F910F9108950093DD
:104BF000C9031093CA03F4CF2115310551F04217B0
:104C0000530738F0A901DB019A01BD01DF01F8016A
:104C1000C1CFEF01F9CF9093CA038093C903CDCFE1
:104C2000FE01E20FF31F81939193225031093983E2
:104C30002883D7CF2091C7033091C803232B41F499
:104C400020910501309106013093C8032093C703DA
:104C500020910301309104012115310541F42DB754
:104C60003EB74091070150910801241B350BE0919C
:104C7000C703F091C803E217F307A0F42E1B3F0B04
:104C80002817390778F0AC014E5F5F4F24173507BE
:104C900048F04E0F5F1F5093C8034093C7038193A2
:104CA00091939FCFF0E0E0E09CCFCF93DF9300970C
:104CB000E9F0FC01329713821282A091C903B091EE
:104CC000CA03ED0130E020E01097A1F4208131818A
:104CD000820F931F2091C7033091C803281739070B
:104CE00009F061C0F093C803E093C703DF91CF914F
:104CF0000895EA01CE17DF07E8F54A815B819E013E
:104D000041155105B1F7E901FB83EA8349915991B6
:104D1000C40FD51FEC17FD0761F4808191810296C5
:104D2000840F951FE90199838883828193819B83F6
:104D30008A83F0E0E0E012968D919C9113970097A2
:104D4000B9F52D913C911197CD010296820F931FD9
:104D50002091C7033091C8032817390739F63097D7
:104D600051F51092CA031092C903B093C803A093DF
:104D7000C703BCCFD383C28340815181840F951F69
:104D8000C817D90761F44E5F5F4F88819981480F3A
:104D9000591F518340838A819B819383828321158C
:104DA000310509F0B0CFF093CA03E093C9039ECF59
:104DB000FD01DC01C0CF13821282D7CFB0E0A0E0AA
:104DC000E4EEF6E20C9404248C01009751F4CB013C
:104DD0000E94B9258C01C801CDB7DEB7E0E10C9483
:104DE0002024FC01E60FF71F9C0122503109E21735
:104DF000F30708F49DC0D901CD91DC911197C61736
:104E0000D70798F0C530D10530F3CE010497861747
:104E1000970708F3C61BD70B2297C193D1936D93C5
:104E20007C93CF010E945526D6CF5B01AC1ABD0AF8
:104E30004C018C0E9D1EA091C903B091CA03512C48
:104E4000412CF12CE12C109731F58091C703909102
:104E5000C8038815990509F05CC04616570608F086
:104E600058C08091030190910401009741F48DB7DF
:104E70009EB74091070150910801841B950BE817DC
:104E8000F90708F055C0F093C803E093C703F90190
:104E900071836083A0CF8D919C91119712966C9035
:104EA000129713967C901397A815B90559F56C01C4
:104EB00042E0C40ED11CCA14DB0420F1AC014A1933
:104EC0005B09DA011296159780F062827382518332
:104ED0004083D9016D937C93E114F10471F0D70103
:104EE0001396FC93EE93129776CF22968C0F9D1F0C
:104EF000F90191838083F301EFCFF093CA03E0932C
:104F0000C90369CF4816590608F42C017D01D30165
:104F10009ACFCB010E94B9257C01009749F0AE01E0
:104F2000B8010E94A027C8010E945526870153CFCF
:104F300010E000E050CF81E090E0F8940C94F3276B
:104F4000FB01DC0102C001900D9241505040D8F7A6
:104F50000895DC0101C06D9341505040E0F7089581
:104F6000FC018191861721F08823D9F799270895AC
:104F70003197CF010895FB01DC018D9101908019DB
:104F80000110D9F3990B0895FB01DC0101900D92FA
:104F90000020E1F70895FB01DC014150504030F062
:104FA0008D910190801919F40020B9F7881B990B95
:104FB0000895FB0151915523A9F0BF01DC014D91EA
:104FC00045174111E1F759F4CD010190002049F056
:104FD0004D9140154111C9F3FB014111EFCF81E023
:104FE00090E00197089515E0C6E4D5E004C0FE0105
:104FF0000E94B3252196C734D107C9F7F894FFCF93
:105000000101010000CB03800031323334353637E3
:1050100038393002000300040005000600070008CC
:105020000009000C000D00000000009E0F710FA78A
:105030001371056A0F570F480F00000000E012754A
:1050400005A71371053C135413C812000000005D3E
:105050000B7505A713740568087105020EDA0DF6C5
:105060000DEA0D6A0E710523097212D80721082373
:105070000D060D8E0C2F0C0D0A00554C545241207C
:105080004D4F42494C450041542B434C49503D3112
:105090000041542B434D47463D310041542B434E74
:1050A0004D493D322C322C302C302C300052494EA0
:1050B00047002B434C49503A002B434D543A004E85
:1050C0004F204341525249455200415441004154FE
:1050D00044003B004154480041542B435351002BA2
:1050E0004353513A002C0025004E455720534D5351
:1050F00000494E434F4D494E472043414C4C0043DD
:10510000414C4C494E470043414C4C20434F4E4E7E
:0C5110004543544544004469616C3A007A
:00000001FF
